:100000000C942A000C9447000C9447000C94470071
:100010000C9447000C9447000C9447000C94380251
:100020000C9447000C9447000C9447000C94470034
:100030000C9447000C9447000C9447000C94470024
:100040000C9447000C9447000C9447000C94470014
:100050000C94470011241FBECFE5D8E0DEBFCDBF12
:1000600010E0A0E6B0E0E8EAF6E002C005900D92EC
:10007000A839B107D9F723E0A8E9B0E001C01D9283
:10008000AD35B207E1F70E9493020C9452030C9431
:1000900000008BBB88BB82BB2FE18FEB92E021502D
:1000A00080409040E1F700C000001BBA18BA12BAB5
:1000B000089584B38F6084BB84B38F7884BB85B389
:1000C000806785BB8FEF81BB87BB8ABBA79A0895EA
:1000D0001FBC1EBC8EB588608EBD81E591E39BBDC3
:1000E0008ABD89B7806189BF8EB583608EBD7894E3
:1000F00018BA12BA0895CF93DF93CDB7DEB72C9715
:100100000FB6F894DEBF0FBECDBF8CE0EBE8F0E099
:10011000DE01119601900D928A95E1F7E0E0F0E0A2
:1001200041E050E0CA010E2E01C0880F0A94EAF7A0
:10013000809585BB20E030E083B3B9016C5F7F4FD1
:1001400090E0062E02C0959587950A94E2F780FD0F
:100150001CC041E050E002C0440F551F6A95E2F711
:1001600083B390E084239523892BD1F3CF01880FAB
:10017000991FE80FF91F81E090E08C0F9D1FE80F99
:10018000F91FE20FF31F80810AC02F5F3F4F23301A
:10019000310591F63196E430F10521F680E02C9698
:1001A0000FB6F894DEBF0FBECDBFDF91CF9108959B
:1001B0004091600050916100E2E6F0E020E030E024
:1001C0002417350774F4DC017C916081761305C037
:1001D00011967C916181761739F02F5F3F4F3296EF
:1001E000EFCF80E090E0089581E090E00895EF92F5
:1001F000FF920F931F93CF93DF937B018A0120918E
:1002000098003091990048B357E0529FF001539FF6
:10021000F00D1124EF55FF4F408342B3418312820A
:10022000C0E0D1E0BE010E942A038383C701BE0162
:100230000E942A038483C801BE010E942A03858389
:1002400016822F5F3F4F3093990020939800DF91E3
:10025000CF911F910F91FF90EF900895FC01808145
:10026000893921F481E09181993909F080E008957C
:1002700080919800909199008230910584F00197C7
:1002800027E0289FF001299FF00D1124EF55FF4F23
:100290008081813121F481E09181913109F080E008
:1002A0000895AF92BF92CF92DF92EF92FF920F9399
:1002B0001F93CF93DF93C1EAD0E000E010E08AE023
:1002C000E82EF12CCC24CA9491E1B92E25E5A22E7A
:1002D00038E8D32E8091980090919900081719075B
:1002E0000CF058C02D8130E0EC81F0E08B8190E083
:1002F000B7010E942A0390E1699F800D11248BBBF6
:10030000CF01B7010E942A0390E1699F800D11245B
:1003100088BBC901B7010E942A0320E1629F800DBA
:10032000112482BB8FE39DE023E081509040204068
:10033000E1F700C000008AEA0E94490081E0800FD6
:100340008BBB888188BB898182BB8FE79AE126E0DD
:10035000815090402040E1F700C00000809198005B
:100360009091990001970817190724F4DBBAD8BABD
:10037000D2BA03C0CBBAB8BAA2BA8FE39DE023E0E9
:10038000815090402040E1F700C000000F5F1F4FF8
:100390002796A0CFDF91CF911F910F91FF90EF9003
:1003A000DF90CF90BF90AF90089548B352B3809143
:1003B000600090916100E2E6F0E020E030E0281774
:1003C000390754F46081461303C061815617A1F0C8
:1003D0002F5F3F4F3296F3CF28B3FC01EE0FFF1F84
:1003E000EE59FF4F208322B3218301969093610041
:1003F0008093600081E0089580E0089580919E00E0
:1004000090919F008B3391053CF4019690939F004F
:1004100080939E0080E0089510929F0010929E00AD
:1004200081E0089580919C0090919D008B3391050F
:100430003CF4019690939D0080939C0080E0089589
:1004400010929D0010929C0081E0089580919A0086
:1004500090919B008731910534F4019690939B0015
:1004600080939A00089510929B0010929A0008952C
:100470001F920F920FB60F9211242F933F934F9319
:100480005F936F937F938F939F93AF93BF93CF931C
:10049000DF93EF93FF930E94FE01882329F00E94CF
:1004A000120281110E9426028091A000811128C0B1
:1004B00080919E0090919F00C0919C00D0919D00E2
:1004C000E0919A00F0919B002AE030E0B9010E948F
:1004D0002A0390E1699F800D112482BBCE01B901EE
:1004E0000E942A0390E1699F800D112488BBCF01EF
:1004F000B9010E942A0390E1699F800D11248BBBF2
:10050000FF91EF91DF91CF91BF91AF919F918F912B
:100510007F916F915F914F913F912F910F900FBEFF
:100520000F901F901895CF93DF9300D0CDB7DEB713
:100530000E9459000E94680001E01FEF87E893E1E4
:100540000197F1F700C0000083B38F708F30B1F3D3
:100550000E947B00882391F3833209F041C090917F
:10056000A000992309F44CC088B3898382B38A839D
:10057000CE0101960E942E01882339F00E94380195
:100580008823B1F10E94510136C0CE0101960E942C
:10059000D800892BB9F0D89A40919E0050919F00C5
:1005A00060919C0070919D0080919A0090919B00B9
:1005B0000E94F7009FE926E881E0915020408040AA
:1005C000E1F70BC018BA12BA8CEC8BBB9FE32DE09D
:1005D00083E0915020408040E1F700C000000BC054
:1005E0008A3271F40E94D501882311F08AEA01C091
:1005F0008CEC0E9449001092A00010938A0023C046
:1006000090918A0021E09F3F09F420E020938A0026
:100610009F3F21F40093A00018BA12BA8A3009F45F
:1006200080E098B39295907F98BB92B328B392954F
:100630009F70922B98BB92B39295907F92BB92B38E
:100640008F70892B82BB83ED90E30197F1F700C097
:10065000000074CF97FB072E16F4009407D077FDA7
:1006600009D00E943E0307FC05D03EF49095819589
:100670009F4F0895709561957F4F0895AA1BBB1BEE
:1006800051E107C0AA1FBB1FA617B70710F0A61B92
:10069000B70B881F991F5A95A9F780959095BC01B3
:0806A000CD010895F894FFCF8D
:1006A8000A00233211113333936963637777179301
:1006B8005525410010100000000000000000000057
:1006C80000000000000000000000FF010203040514
:0806D800060708092A0A2300A5
:00000001FF
