S01700006D6963726F636F6E74726F6C6C65722E73726563AF
S11300000C942A000C9447000C9447000C9447006D
S11300100C9447000C9447000C9447000C94300255
S11300200C9447000C9447000C9447000C94470030
S11300300C9447000C9447000C9447000C94470020
S11300400C9447000C9447000C9447000C94470010
S11300500C94470011241FBECFE5D8E0DEBFCDBF0E
S113006010E0A0E6B0E0E0E5FCE002C005900D92EF
S1130070AA3AB107D9F723E0AAEAB0E001C01D9279
S1130080A537B207E1F70E948B020C9426060C9464
S113009000008BBB88BB82BB2FEB84ED91E0215029
S11300A080409040E1F700C000001BBA18BA12BAB1
S11300B0089584B38F6084BB84B38F7884BB85B385
S11300C0806785BB8FEF81BB87BB8ABBA79A0895E6
S11300D01FBC1EBC8EB588608EBD84ED90E39BBDB5
S11300E08ABD89B7806189BF8EB583608EBD7894DF
S11300F018BA12BA0895CF93DF93CDB7DEB72C9711
S11301000FB6F894DEBF0FBECDBF8CE0EBE8F0E095
S1130110DE01119601900D928A95E1F7E0E0F0E09E
S113012041E050E0CA010E2E01C0880F0A94EAF79C
S1130130809585BB20E030E083B3B9016C5F7F4FCD
S113014090E0062E02C0959587950A94E2F780FD0B
S11301501CC041E050E002C0440F551F6A95E2F70D
S113016083B390E084239523892BD1F3CF01880FA7
S1130170991FE80FF91F81E090E08C0F9D1FE80F95
S1130180F91FE20FF31F80810AC02F5F3F4F233016
S1130190310591F63196E430F10521F680E02C9694
S11301A00FB6F894DEBF0FBECDBFDF91CF91089597
S11301B0CF92DF92EF92FF920F931F93CF93DF932F
S11301C07C01C2E6D0E000E010E087E9C82E80E0C0
S11301D0D82E809160009091610008171907DCF413
S11301E0DF93CF931F930F93DF92CF920E94480324
S11301F00F900F900F900F900F900F90F701908138
S11302008881981304C091818981981739F00F5F10
S11302101F4F2296DECF80E090E002C081E090E0A4
S1130220DF91CF911F910F91FF90EF90DF90CF90CE
S11302300895EF92FF920F931F93CF93DF937B0167
S11302408A012091AA003091AB0048B357E0529F35
S1130250F001539FF00D1124ED54FF4F408342B33E
S113026041831282C0E0D1E0BE010E942003838357
S1130270C701BE010E9420038483C801BE010E94FD
S11302802003858316822F5F3F4F3093AB0020936A
S1130290AA00DF91CF911F910F91FF90EF900895E5
S11302A0FC018081893921F481E09181993909F037
S11302B080E00895DF92EF92FF920F931F93CF9304
S11302C0DF93C3EBD0E000E010E08AE0E82EF12CED
S11302D098E8D92E98010F5F1F4F8091AA00909142
S11302E0AB00281739070CF048C02D8130E0EC81B1
S11302F0F0E08B8190E0B7010E94200390E1699FB8
S1130300800D11248BBBCF01B7010E94200390E123
S1130310699F800D112488BBC901B7010E94200385
S113032020E1629F800D112482BB8FE39DE023E0D6
S1130330815090402040E1F700C000008AEA0E940A
S113034049000BBB888188BB898182BB8FE79AE116
S113035026E0815090402040E1F700C00000DBBA65
S1130360D8BAD2BA8FE39DE023E081509040204078
S1130370E1F700C000002796ADCFDF91CF911F9128
S11303800F91FF90EF90DF90089548B352B380919E
S113039060009091610022B3FC01EE0FFF1FDF01AA
S11303A0AE59BF4F11962C93A2E6B0E020E030E0A6
S11303B02817390764F46C91461305C011966C91A3
S11303C01197561789F02F5F3F4F1296F1CF28B33C
S11303D0EE59FF4F208322B321830196909361004D
S11303E08093600081E0089580E008958091B000DA
S11303F09091B1008B3391053CF401969093B10038
S11304008093B00080E008951092B1001092B00083
S113041081E008958091AE009091AF008B339105F7
S11304203CF401969093AF008093AE0080E0089571
S11304301092AF001092AE0081E008958091AC005C
S11304409091AD008731910534F401969093AD00FD
S11304508093AC0008951092AD001092AC00089502
S11304601F920F920FB60F9211242F933F934F9325
S11304705F936F937F938F939F93AF93BF93CF9328
S1130480DF93EF93FF930E94F601882329F00E94E3
S11304900A0281110E941E028091B200811128C0BB
S11304A08091B0009091B100C091AE00D091AF00A6
S11304B0E091AC00F091AD002AE030E0B9010E9477
S11304C0200390E1699F800D112482BBCE01B90104
S11304D00E94200390E1699F800D112488BBCF0105
S11304E0B9010E94200390E1699F800D11248BBB08
S11304F0FF91EF91DF91CF91BF91AF919F918F9138
S11305007F916F915F914F913F912F910F900FBE0B
S11305100F901F901895CF93DF9300D0CDB7DEB71F
S11305200E9459000E94680001E01FEF87E893E1F0
S11305300197F1F700C0000083B38F708F30B1F3DF
S11305400E947B00882391F3833209F03FC090918D
S1130550B200992309F44AC088B3898382B38A8399
S1130560CE0101960E945001882319F00E945A017D
S113057038C0CE0101960E94D800892BC9F0D89AC0
S11305809FE926E881E0915020408040E1F700C0D7
S113059000004091B0005091B1006091AE007091A4
S11305A0AF008091AC009091AD000E94190119C078
S11305B018BA12BA8CEC8BBB9FE32DE083E0915008
S11305C020408040E1F700C000000BC08A3271F483
S11305D00E94C501882311F08AEA01C08CEC0E94B4
S11305E049001092B20010938A0023C090918A00AF
S11305F021E09F3F09F420E020938A009F3F21F4EB
S11306000093B20018BA12BA8A3009F480E098B3A1
S11306109295907F98BB92B328B392959F70922B3A
S113062098BB92B39295907F92BB92B38F70892BB3
S113063082BB83ED90E30197F1F700C0000076CF11
S113064097FB072E16F4009407D077FD09D00E947B
S1130650340307FC05D03EF4909581959F4F08958F
S1130660709561957F4F0895AA1BBB1B51E107C08C
S1130670AA1FBB1FA617B70710F0A61BB70B881F2E
S1130680991F5A95A9F780959095BC01CD010895BD
S1130690A0E0B0E0EEE4F3E00C94FF05AE014B5FA4
S11306A05F4FFA0161917191AF0180917103909153
S11306B072030E945E03E2E00C941B06ABE0B0E020
S11306C0E4E6F3E00C94EF056C017B018A01FC0184
S11306D017821682838181FFCCC1CE0101963C0131
S11306E0F6019381F70193FD859193FF81917F0139
S11306F0882309F4BAC1853239F493FD859193FFB7
S113070081917F01853229F4B60190E00E9455055C
S1130710E7CF912C212C312CFFE1F315D8F08B324B
S113072079F038F4803279F08332A1F4232D2061FA
S11307301DC08D3261F0803369F4232D216016C011
S1130740832D8260382EE32DE4603E2E2AC0F32DE3
S1130750F8601DC037FC2DC020ED280F2A3040F072
S11307608E32B9F436FC81C1232D2064322E19C097
S113077036FE06C08AE0989E200D1124922E11C0E8
S1130780EAE02E9E200D1124222EF32DF0623F2E3E
S113079008C08C3621F4832D8068382E02C0883638
S11307A041F4F70193FD859193FF81917F018111BC
S11307B0B3CF982F9F7D9554933028F40C5F1F4F2F
S11307C09FE399830DC0833631F0833771F083350D
S11307D009F059C021C0F801808189830E5F1F4F41
S11307E088248394912C530113C02801F2E04F0E06
S11307F0511CF801A080B18036FE03C0692D70E061
S113080002C06FEF7FEFC5010E944A054C018201CF
S1130810F32DFF773F2E16C0280122E0420E511C13
S1130820F801A080B18036FE03C0692D70E002C0DB
S11308306FEF7FEFC5010E943F054C01F32DF06877
S11308403F2E820133FC1BC0822D90E0881699064E
S1130850B0F4B60180E290E00E9455052A94F4CFEA
S1130860F50137FC859137FE81915F01B60190E077
S11308700E94550521102A9421E0821A91088114BE
S1130880910471F7E8C0843611F0893641F5F80116
S113089037FE07C060817181828193810C5F1F4F95
S11308A008C060817181072E000C880B990B0E5FC4
S11308B01F4FF32DFF763F2E97FF09C0909580952B
S11308C0709561957F4F8F4F9F4FF0683F2E2AE0C0
S11308D030E0A3010E949105882E861845C0853713
S11308E031F4232D2F7EB22E2AE030E025C0932D43
S11308F0997FB92E8F36C1F018F4883579F0B5C0D8
S1130900803719F0883721F0B0C0E92FE061BE2E9E
S1130910B4FE0DC0FB2DF460BF2E09C034FE0AC026
S1130920292F2660B22E06C028E030E005C020E161
S113093030E002C020E132E0F801B7FE07C0608178
S11309407181828193810C5F1F4F06C06081718128
S113095080E090E00E5F1F4FA3010E949105882E56
S11309608618FB2DFF773F2E36FE0DC0232D2E7FDC
S1130970A22E891458F434FE0BC032FC09C0832D16
S11309808E7EA82E05C0B82CA32C03C0B82C01C0A1
S1130990B92CA4FE0FC0FE01E80DF11D8081803347
S11309A021F49A2D997EA92E09C0A2FE06C0B39403
S11309B0B39404C08A2D867809F0B394A3FC11C0C3
S11309C0A0FE06C0B21488F4280C922C9B180EC00A
S11309D0B21460F4B60180E290E00E945505B3942D
S11309E0F7CFB21418F42B1802C0982C212CA4FEB3
S11309F010C0B60180E390E00E945505A2FE17C026
S1130A00A1FC03C088E790E002C088E590E0B6014D
S1130A100CC08A2D867859F0A1FE02C08BE201C079
S1130A2080E2A7FC8DE2B60190E00E94550589148E
S1130A3038F4B60180E390E00E9455059A94F7CF0C
S1130A408A94F301E80DF11D8081B60190E00E94C3
S1130A5055058110F5CF222009F442CEB60180E27B
S1130A6090E00E9455052A94F6CFF601868197817D
S1130A7002C08FEF9FEF2B96E2E10C940B06FC0172
S1130A800590615070400110D8F7809590958E0FB5
S1130A909F1F0895FC016150704001900110D8F728
S1130AA0809590958E0F9F1F08950F931F93CF935A
S1130AB0DF93FB01238121FD03C08FEF9FEF2CC047
S1130AC022FF16C04681578124813581421753077E
S1130AD044F4A081B1819D012F5F3F4F3183208376
S1130AE08C93268137812F5F3F4F3783268314C031
S1130AF08B01EC01FB010084F185E02D0995892B24
S1130B00E1F6D80116968D919C9117970196179648
S1130B109C938E931697CE01DF91CF911F910F91E5
S1130B200895FA01AA27283051F1203181F1E8947F
S1130B306F936E7F6E5F7F4F8F4F9F4FAF4FB1E0CC
S1130B403ED0B4E03CD0670F781F891F9A1FA11DC7
S1130B50680F791F8A1F911DA11D6A0F711D811DC8
S1130B60911DA11D20D009F468943F912AE0269F8D
S1130B7011243019305D3193DEF6CF010895462FEC
S1130B804770405D4193B3E00FD0C9F7F6CF462FCD
S1130B904F70405D4A3318F0495D31FD4052419336
S1130BA002D0A9F7EACFB4E0A695979587957795F3
S1130BB06795BA95C9F700976105710508959B017A
S1130BC0AC010A2E06945795479537952795BA9503
S1130BD0C9F7620F731F841F951FA01D08952F92DC
S1130BE03F924F925F926F927F928F929F92AF92B9
S1130BF0BF92CF92DF92EF92FF920F931F93CF9306
S1130C00DF93CDB7DEB7CA1BDB0B0FB6F894DEBF9C
S1130C100FBECDBF09942A88398848885F846E84C2
S1130C207D848C849B84AA84B984C884DF80EE800C
S1130C30FD800C811B81AA81B981CE0FD11D0FB615
S1130C40F894DEBF0FBECDBFED010895F894FFCF39
S1130C500A0023321111333393696363777717934F
S1130C6055254100101000000000000000000000A5
S1130C7000000000000000000000FF010203040562
S1130C80060708092A0A2370617373776F72645B1D
S10D0C9025645D20697320257300BC
S9030000FC
