:100000000C942A000C9447000C9447000C94470071
:100010000C9447000C9447000C9447000C942A0160
:100020000C9447000C9447000C9447000C94470034
:100030000C9447000C9447000C9447000C94470024
:100040000C9447000C9447000C9447000C94470014
:100050000C94470011241FBECFE5D8E0DEBFCDBF12
:1000600010E0A0E6B0E0E6E2FAE002C005900D92F2
:10007000AA3AB107D9F720E0AAEAB0E001C01D9280
:10008000A53BB207E1F70E9470010C9411050C9496
:10009000000084B38F6084BB84B38F7884BB85B346
:1000A000806785BB8FEF81BB87BB81E08ABB0895EA
:1000B0001FBC1EBC8EB588608EBD89E09DE39BBDD4
:1000C0008ABD89B7806189BF8EB583608EBD789403
:1000D00018BA12BA0895CF93DF93CDB7DEB72C9735
:1000E0000FB6F894DEBF0FBECDBF8CE0EBE8F0E0BA
:1000F000DE01119601900D928A95E1F7E0E0F0E0C3
:1001000041E050E0CA010E2E01C0880F0A94EAF7C0
:10011000809585BB20E030E083B3B9016C5F7F4FF1
:1001200090E0062E02C0959587950A94E2F780FD2F
:100130001CC041E050E002C0440F551F6A95E2F731
:1001400083B390E084239523892BD1F3CF01880FCB
:10015000991FE80FF91F81E090E08C0F9D1FE80FB9
:10016000F91FE20FF31F80810AC02F5F3F4F23303A
:10017000310591F63196E430F10521F680E02C96B8
:100180000FB6F894DEBF0FBECDBFDF91CF910895BB
:10019000CF92DF92EF92FF920F931F93CF93DF9353
:1001A0007C01C2E6D0E000E010E087E9C82E80E0E4
:1001B000D82EDF93CF931F930F93DF92CF920E949D
:1001C00033020F900F900F900F900F900F90F70148
:1001D00090818881981304C091818981981749F092
:1001E0000F5F1F4F22960A30110519F780E090E04B
:1001F00002C081E090E0DF91CF911F910F91FF90BD
:10020000EF90DF90CF9008958091AC009091AD0079
:100210008B3391053CF401969093AD008093AC0034
:1002200080E008951092AD001092AC0081E0089536
:100230008091AA009091AB008B33910534F4019624
:100240009093AB008093AA0008951092AB00109297
:10025000AA0008951F920F920FB60F9211242F93A8
:100260003F934F935F936F937F938F939F93AF933E
:10027000BF93EF93FF930E94040181110E94180124
:100280008091AE0081111BC08091AC009091AD00B7
:10029000E091AA00F091AB002AE030E0B9010E94A1
:1002A000040290E1699F800D112482BBCF01B90146
:1002B0000E94040290E1699F800D112488BBFF9188
:1002C000EF91BF91AF919F918F917F916F915F91CE
:1002D0004F913F912F910F900FBE0F901F90189547
:1002E000CF93DF9300D0CDB7DEB70E9449000E94C4
:1002F000580001E01FEF87E893E10197F1F700C094
:10030000000083B38F708F30B1F30E946B0088239D
:1003100091F3833219F588B3898382B38A83CE013E
:1003200001960E94C800892B69F0D89A9FE32DE0BE
:1003300083E0915020408040E1F700C000008BB383
:100340001BBA36C018BA12BA9FE72AE186E091506C
:1003500020408040E1F700C000002AC08A3269F5E1
:100360006BB370E0E0916000F0916100EE0FFF1F51
:10037000EE59FF4F808190E00E942C0262B370E042
:10038000E0916000F0916100EE0FFF1FEE59FF4F0A
:10039000818190E00E942C02809160009091610028
:1003A0000196909361008093600012BA1BBA18BA4C
:1003B0001092AE0010938A0020C090918A0021E034
:1003C0009F3F09F420E020938A009F3F21F400938F
:1003D000AE0018BA12BA98B39295907F98BB92B3B8
:1003E00028B392959F70922B98BB92B39295907F71
:1003F00092BB92B38F70892B82BB83ED90E3019700
:10040000F1F700C0000077CF97FB072E16F4009499
:1004100007D077FD09D00E94180207FC05D03EF4F2
:10042000909581959F4F0895709561957F4F0895A0
:10043000AA1BBB1B51E107C0AA1FBB1FA617B7070A
:1004400010F0A61BB70B881F991F5A95A9F7809526
:100450009095BC01CD010895FB01DC0101900D9246
:100460000020E1F70895A0E0B0E0E9E3F2E00C94A9
:10047000EA04AE014B5F5F4FFA0161917191AF01E8
:100480008091B1009091B2000E944902E2E00C9488
:100490000605ABE0B0E0EFE4F2E00C94DA046C01A6
:1004A0007B018A01FC0117821682838181FFCCC106
:1004B000CE0101963C01F6019381F70193FD8591F0
:1004C00093FF81917F01882309F4BAC1853239F401
:1004D00093FD859193FF81917F01853229F4B601C7
:1004E00090E00E944004E7CF912C212C312CFFE1B9
:1004F000F315D8F08B3279F038F4803279F083320A
:10050000A1F4232D20611DC08D3261F0803369F488
:10051000232D216016C0832D8260382EE32DE460E8
:100520003E2E2AC0F32DF8601DC037FC2DC020EDF3
:10053000280F2A3040F08E32B9F436FC81C1232DC9
:100540002064322E19C036FE06C08AE0989E200D27
:100550001124922E11C0EAE02E9E200D1124222E8D
:10056000F32DF0623F2E08C08C3621F4832D806875
:10057000382E02C0883641F4F70193FD859193FF30
:1005800081917F018111B3CF982F9F7D9554933036
:1005900028F40C5F1F4F9FE399830DC0833631F021
:1005A000833771F0833509F059C021C0F80180818B
:1005B00089830E5F1F4F88248394912C530113C0AD
:1005C0002801F2E04F0E511CF801A080B18036FEE8
:1005D00003C0692D70E002C06FEF7FEFC5010E947C
:1005E00035044C018201F32DFF773F2E16C0280100
:1005F00022E0420E511CF801A080B18036FE03C0FB
:10060000692D70E002C06FEF7FEFC5010E942A04E0
:100610004C01F32DF0683F2E820133FC1BC0822D6C
:1006200090E088169906B0F4B60180E290E00E944E
:1006300040042A94F4CFF50137FC859137FE81916F
:100640005F01B60190E00E94400421102A9421E04D
:10065000821A91088114910471F7E8C0843611F070
:10066000893641F5F80137FE07C0608171818281CA
:1006700093810C5F1F4F08C060817181072E000CB1
:10068000880B990B0E5F1F4FF32DFF763F2E97FFC0
:1006900009C090958095709561957F4F8F4F9F4FC2
:1006A000F0683F2E2AE030E0A3010E947C04882EEF
:1006B000861845C0853731F4232D2F7EB22E2AE0CF
:1006C00030E025C0932D997FB92E8F36C1F018F4F4
:1006D000883579F0B5C0803719F0883721F0B0C07F
:1006E000E92FE061BE2EB4FE0DC0FB2DF460BF2EDD
:1006F00009C034FE0AC0292F2660B22E06C028E0A9
:1007000030E005C020E130E002C020E132E0F80135
:10071000B7FE07C060817181828193810C5F1F4F9A
:1007200006C06081718180E090E00E5F1F4FA301E1
:100730000E947C04882E8618FB2DFF773F2E36FE04
:100740000DC0232D2E7FA22E891458F434FE0BC029
:1007500032FC09C0832D8E7EA82E05C0B82CA32C98
:1007600003C0B82C01C0B92CA4FE0FC0FE01E80DD7
:10077000F11D8081803321F49A2D997EA92E09C024
:10078000A2FE06C0B394B39404C08A2D867809F003
:10079000B394A3FC11C0A0FE06C0B21488F4280CC8
:1007A000922C9B180EC0B21460F4B60180E290E067
:1007B0000E944004B394F7CFB21418F42B1802C06F
:1007C000982C212CA4FE10C0B60180E390E00E947A
:1007D0004004A2FE17C0A1FC03C088E790E002C05D
:1007E00088E590E0B6010CC08A2D867859F0A1FE0C
:1007F00002C08BE201C080E2A7FC8DE2B60190E06E
:100800000E944004891438F4B60180E390E00E940D
:1008100040049A94F7CF8A94F301E80DF11D80818A
:10082000B60190E00E9440048110F5CF222009F427
:1008300042CEB60180E290E00E9440042A94F6CFB6
:10084000F6018681978102C08FEF9FEF2B96E2E140
:100850000C94F604FC010590615070400110D8F72B
:10086000809590958E0F9F1F0895FC0161507040F8
:1008700001900110D8F7809590958E0F9F1F0895D5
:100880000F931F93CF93DF93FB01238121FD03C0BF
:100890008FEF9FEF2CC022FF16C046815781248125
:1008A00035814217530744F4A081B1819D012F5F28
:1008B0003F4F318320838C93268137812F5F3F4FB9
:1008C0003783268314C08B01EC01FB010084F18582
:1008D000E02D0995892BE1F6D80116968D919C9112
:1008E0001797019617969C938E931697CE01DF91DA
:1008F000CF911F910F910895FA01AA27283051F145
:10090000203181F1E8946F936E7F6E5F7F4F8F4F40
:100910009F4FAF4FB1E03ED0B4E03CD0670F781F9F
:10092000891F9A1FA11D680F791F8A1F911DA11D84
:100930006A0F711D811D911DA11D20D009F46894BD
:100940003F912AE0269F11243019305D3193DEF665
:10095000CF010895462F4770405D4193B3E00FD01B
:10096000C9F7F6CF462F4F70405D4A3318F0495D06
:1009700031FD4052419302D0A9F7EACFB4E0A695E9
:100980009795879577956795BA95C9F7009761050B
:10099000710508959B01AC010A2E06945795479561
:1009A00037952795BA95C9F7620F731F841F951F56
:1009B000A01D08952F923F924F925F926F927F9267
:1009C0008F929F92AF92BF92CF92DF92EF92FF925F
:1009D0000F931F93CF93DF93CDB7DEB7CA1BDB0B0B
:1009E0000FB6F894DEBF0FBECDBF09942A883988B0
:1009F00048885F846E847D848C849B84AA84B984B7
:100A0000C884DF80EE80FD800C811B81AA81B981C2
:100A1000CE0FD11D0FB6F894DEBF0FBECDBFED01D6
:060A20000895F894FFCFD9
:100A26000A00233211113333936999997777179313
:100A360055254100101000000000000000000000D5
:100A460000000000000000000000FF010203040592
:100A5600060708092A002370617373776F72645B57
:0A0A660025645D20697320257300EC
:00000001FF
