S01700006D6963726F636F6E74726F6C6C65722E73726563AF
S11300000C942A000C943C000C943C000C943C008E
S11300100C943C000C943C000C943C000C943E006A
S11300200C943C000C943C000C943C000C943C005C
S11300300C943C000C943C000C943C000C943C004C
S11300400C943C000C943C000C943C000C943C003C
S11300500C943C0011241FBECFE5D8E0DEBFCDBF19
S113006020E0A0E6B0E001C01D92A136B207E1F79E
S11300700E9459000C946F000C9400001F920F9280
S11300800FB60F9211248F9380916000882331F072
S11300908AEA88BB82BB1092600005C018BA12BA03
S11300A081E0809360008F910F900FBE0F901F909E
S11300B018951FBC1EBC8EB588608EBD89E09DE37B
S11300C09BBD8ABD89B7806189BF8EB583608EBDB3
S11300D08FEF87BB81BB789418BA12BAFFCFF8941C
S10500E0FFCF4C
S9030000FC
