:100000000C942A000C943F000C943F000C943F0089
:100010000C943F000C943F000C943F000C943F0064
:100020000C943F000C943F000C943F000C943F0054
:100030000C943F000C943F000C943F000C943F0044
:100040000C943F000C943F000C943F000C943F0034
:100050000C943F0011241FBECFE5D8E0DEBFCDBF1A
:1000600010E0A0E6B0E0E8E0F2E002C005900D92FA
:10007000A038B107D9F70E94C6000C9402010C9475
:10008000000084B38F6084BB84B38F7884BB85B356
:10009000806785BB8FEF81BB8ABB81E087BB0895FA
:1000A000CF93DF93CDB7DEB72C970FB6F894DEBFB2
:1000B0000FBECDBF8CE0E4E7F0E0DE0111960190C9
:1000C0000D928A95E1F780E090E061E070E0AC018C
:1000D0009B01082E02C0220F331F0A94E2F72095DD
:1000E00025BB9C9B0CC09D9B06C09E9928C086E0AA
:1000F00062E070E007C085E061E070E003C084E08A
:1001000060E070E021E030E002C0220F331F8A95EA
:10011000E2F783B390E082239323892BD1F3CA01C2
:10012000880F991F480F591F81E090E08C0F9D1F89
:10013000480F591FFA01E60FF71F808105C001968D
:100140008430910521F680E02C960FB6F894DEBF3E
:100150000FBECDBFDF91CF910895DC012C91E0E679
:10016000F0E044E750E09081291306C011963C91DD
:1001700011979181391739F03296E417F50799F7FD
:1001800080E090E0089581E090E00895CF93DF93C0
:1001900000D0CDB7DEB70E94410087E893E1019718
:1001A000F1F700C0000083B38F708F30B1F30E946D
:1001B0005000882391F3833299F09BB39295907FFE
:1001C0009BBB22B39BB322952F70922B9BBB92B308
:1001D0009295907F92BB92B38F70892B82BB0BC09C
:1001E0008BB3898382B38A83CE0101960E94AD00CE
:1001F000892B09F0C09A83ED90E30197F1F700C0D5
:080200000000CBCFF894FFCF02
:10020800ABAB1111333393699999777717935525C8
:10021800410010100102030405060708092A0023FB
:00000001FF
